:030000000209FEF4
:0C09FE00787FE4F6D8FD758120020A45E0
:100C5B0020204D6F76652073776974636865732008
:100C6B000020746F20737461727420746573742028
:020C7B00200057
:100CE000010D00010F01010E00010C00010B0001BC
:080CF0000800010900010A00DF
:10080000120E6A120E85120C7DD2AF120D00120D5F
:10081000767BFF7A0C795B7D10120C2F7FC0120E55
:100820000A7BFF7A0C796C7D10120C2F75900F43A8
:10083000900FE590540FF50B650C60F3850B0C439E
:10084000900FE590540FF50BB407005057900854E3
:10085000F8282873020869020871020879020881E1
:1008600002088C02089702089F120E36120DF380C0
:10087000BE120E36120BBD80B6120E36120A8A80D8
:10088000AE120E36120D0012095780A3120E361248
:100890000DC41208AC8098120E36120AEC80901229
:0C08A0000E36808B120E36120DF3808392
:03000B00020D20C3
:100D2000C0E0C0D0C28D758C3C758AB00508E5085E
:0D0D3000B41405B294750800D0D0D0E032A4
:03001B00020D3D96
:100D3D00C0E0C0D0C28F758D00758BC00509E50967
:0D0D4D00B4FA05B295750900D0D0D0E0329F
:03002B00020DDCE7
:100DDC00C0E0C0D0C2CF050AE50AB45005B2967582
:070DEC000A00D0D0D0E03274
:100E3600C28CC28EC2CA53C3BF53D8BFC2AC7F01D5
:030E4600020E0A8F
:100B3B0054657374696E6720554152542E2E0053C1
:100B4B00656E64696E67203A20005265636569764D
:100B5B0065643A200054657374204661696C656462
:100B6B00200046696E697368656420546573746907
:030B7B006E6700A2
:030CF800011A00DE
:100DC400758F7F439850438780539BEE439B0E75EA
:080DD4009A64D2AC439B10228B
:1008AC00E4F5107F01120E0A7BFF7A0B793B7D0E6B
:1008BC00120C2F7FDC7E05120CBF7F01120E0A7FFB
:1008CC0080120E0A7BFF7A0B794A7D0A120C2FE4F8
:1008DC00F5107F8B120E0AE5102430FF120E20E566
:1008EC00102430F5992099FD2098FD7FC0120E0A36
:1008FC007BFF7A0B79557D0A120C2F7FCA120E0AD8
:10090C00AF1A120E207FE87E03120CBFE5102430C4
:10091C00FFE433FEE51A6F7001EE60107FC0120E1B
:10092C000A7BFF7A0B79607D0C020C2FE510B40466
:10093C00107FC0120E0A7BFF7A0B796D7D10120CA2
:0A094C002F0510E510C39405408844
:01095600227E
:03002300020E7951
:0C0E7900309806C29885991A32C299324E
:100E490054657374696E672054696D6572732E2ECB
:010E59000098
:0F0E6A005389F0438901758C3C758AB0D2A92257
:0C0E850053890FE4F58D758BC0D2AB22B1
:100C7D0053C9FC43C901C2CEC2CCC2CDC2CB75CDC6
:100C8D003C75CCB075CB3C75CAB0C2C9C2C8D2AD2B
:010C9D002234
:100DF3007F01120E0A7BFF7A0E79497D10120C2FA8
:070E0300D28CD28ED2CA226C
:100BF70050574D20546573742E2E2E2E00436F755B
:100C07006E74657220546573742E2E2E2E00436FFA
:100C1700756E74203A200046696E697368656420B2
:080C2700546573742E2E2E009B
:100BBD00D294D295D296D2977F01120E0A7BFF7AEC
:100BCD000B79F77D0C120C2F53D9F943D90243D869
:100BDD0040E4F5FB75FC8075FDE675FEFF43DB42D9
:0A0BED0043DC4243DD4243DE4222B6
:100A8A00D29253D9F943D90643D8407F01120E0AAC
:100A9A007BFF7A0C79047D10120C2F7FDC7E051205
:100AAA000CBF7FC0120E0A7BFF7A0C79157D0812E3
:100ABA000C2FE5E9C39405500F7FC9120E0AE5E928
:100ACA002430FF120E2080EAE4F5E97FC0120E0AF4
:100ADA007BFF7A0C791E7D10120C2F7FD07E0702C5
:020AEA000CBF3F
:100B7E0053504920546573742E2E0053656E64696C
:100B8E006E67203A200052656365697665643A2087
:100B9E000054657374204661696C65642000546569
:0F0BAE007374205375636365737366756C2000F1
:040CFB0002180000DB
:100D0000D294D295D296D297D29443C32043C301B2
:100D100043C31053C3F743C30443B10443C3402246
:10095700E4F5107F01120E0A7BFF7A0B797E7D0A80
:10096700120C2F7FDC7E05120CBF7F01120E0A7B53
:10097700FF7A0B79897D0A120C2FE4F5107F8B1211
:100987000E0AE5102430FF120E20C294E510243021
:10099700F5C53000FDC2007FC0120E0A7BFF7A0B3F
:1009A70079947D0A120C2F7FCA120E0AAF17120E06
:1009B700207FE87E03120CBFE5102430FFE433FEEE
:1009C700E5176F7001EE60107FC0120E0A7BFF7A89
:1009D7000B799F7D0C020C2FE510B404107FC01219
:1009E7000E0A7BFF7A0B79AC7D10120C2F0510E5F0
:0609F70010C394054087C7
:0109FD0022D7
:03004B00020D5A49
:100D5A00C0E0C0D075D000C007AFC4EF24807005D2
:0C0D6A0085C517D200D007D0D0D0E032F1
:100E5A0054657374205375636365737366756C00A8
:100D76007F647E00120CA67F38120E0A7F0E120EBA
:0B0D86000A7F01120E0A7F80020E0A95
:100E0A008F12120D918512A0C280120C9EC2827F8F
:060E1A00057E00020CA69B
:100E20008F16120D918516A0D280120C9EC2827F61
:060E3000057E00020CA685
:100C2F008B128A1389148D15E515D39400401CABD4
:100C3F0012AA13A914120DABFF120E207401251462
:0C0C4F00F514E43513F513151580DD22B3
:100D910075A0FFC280D281C282120CA2D28230A77A
:0A0DA10006C282D28280F7C28222CD
:080C9E00C281D2827F057E00B5
:100CA600D3EF9400EE64809480400DE4FD0DBD0505
:080CB600FCEF1F70EB1E80E84B
:010CBE002213
:100CBF00D3EF9400EE648094804015E4FCFD0DBDED
:100CCF0000010CBC01F8BD7EF5EF1F70E31E80E044
:010CDF0022F2
:100AEC007F01120E0AE4F511E4F510E511C3941020
:100AFC00E51150042480800224B0FF120E0AE51088
:100B0C002441FF120E207F0A7E00120CBF0510E557
:100B1C0010C3941A40D50511E511C3942040C97F28
:0F0B2C0001120E0A7BFF7A0E795A7D0F020C2FF1
:100A0A00020800E493A3F8E493A34003F68001F2FA
:100A1A0008DFF48029E493A3F85407240CC8C333ED
:100A2A00C4540F4420C8834004F456800146F6DFBC
:100A3A00E4800B0102040810204080900CE0E47E60
:100A4A00019360BCA3FF543F30E509541FFEE493B1
:100A5A00A360010ECF54C025E060A840B8E493A378
:100A6A00FAE493A3F8E493A3C8C582C8CAC583CAA3
:100A7A00F0A3C8C582C8CAC583CADFE9DEE780BE5B
:010CFF0000F4
:100DAB00BB010689828A83E0225002E722BBFE0246
:090DBB00E32289828A83E4932279
:00000001FF
