:03000000020A08E9
:0C0A0800787FE4F6D8FD758133020A4FB8
:100B2100706D00616D006872006D6F6E00747565A7
:100B3100007765640074687200667269007361749D
:100B41000073756E0054696D652000446174652001
:010B510000A3
:100BA100081720425106130118100215D0D1011F58
:100BB10000010800021200000210000002250000DE
:100CA600D2C1D2C07593004393814393405393C7F7
:010CB600221B
:03004300020800B0
:10080000C0E0C083C082C0D075D000C000C007AFB8
:1008100094EF120AC10837080841100856180882D8
:1008200020085B28088230088440088248088B50E2
:1008300008BE58000008D80511E511700C0510809D
:10084000080511E51170020510142415F8E6F59558
:100850005393E70208D87595008020E50F7021C3F7
:10086000E5139408E5126480948050660513E5133F
:1008700070020512142417F8E6F5955393C78058B3
:100880008050800280207593D1804DC3E526940569
:10089000E5256480948050130526E5267002052521
:1008A000142427F8A6957593C5802D0526E5267096
:1008B000020525142427F8A6955393C3801A05260C
:1008C000E52670020525142427F8A69575250075E0
:1008D00026007593D1750C01D007D000D0D0D082FE
:0508E000D083D0E032DE
:100C780043B00F43A88443B80443B70443B102E424
:090C8800F5B275B30243880422A1
:03001300020CB725
:070CB7007508015388F732B4
:040CC4004393202214
:100B7D007F38120C1F120C5B7F0E120C1F120C5BB8
:100B8D007F01120C1F120C5B7F80120C1F7F647E85
:040B9D0000020C5FE7
:100C010075A0FFC280D281C2827F057E00120C5F77
:0E0C1100D28230A706C282D28280F7C282222F
:100C1F008F2E120C01852EA0C280C281D2827F013D
:0E0C2F007E00120C5FC2827F017E00020C5F0D
:100C3D008F33120C018533A0D280C281D2827F0105
:0E0C4D007E00120C5FC2827F017E00020C5FEF
:060B52008B2E8A2F893072
:100B5800E4F531F532AB2EAA2FA9308532828531E2
:100B680083120A94FF600D120C3D0532E53270E5E0
:040B7800053180E1E2
:010B7C002256
:040C5B007F647E0034
:100C5F00D3EF9400EE64809480400DE4FD0DBD054C
:080C6F00FCEF1F70EB1E80E892
:010C7700225A
:070BE20074272521F8E6FF4E
:100BE900EF54F0F524EF540FF514431430E524C401
:080BF900540FF52443243022BF
:1008E5007F85120C1F752000752102120BE2E52190
:1008F500640245207034E5245406F50924FC601192
:1009050024FE701E750D00750E01E4F50AF50B80C9
:100915000B750A00750B01E4F50DF50EE524540180
:100925008004E52454034430F524AF24120C3DAF74
:1009350014120C3D7F20120C3DE521152170021586
:1009450020C3E5206480948050A1E50E6401450D27
:1009550070087BFF7A0B79218014E50B6401450A49
:100965007BFF70067A0B792480047A0B7927120BAA
:0209750052220C
:100977007FC5120C1F752000752103120BE2E521BC
:10098700640345207055E514540FF50924FE6018DB
:1009970014601D14602214602714602C2405703025
:1009A7007BFF7A0B792A802E7BFF7A0B792E8026A4
:1009B7007BFF7A0B7932801E7BFF7A0B79368016A4
:1009C7007BFF7A0B793A800E7BFF7A0B793E8006A4
:1009D7007BFF7A0B7942120B52800FAF24120C3D2A
:1009E700AF14120C3D7F2F120C3D0521E52170023B
:1009F7000520C39407E52064809480500302098290
:010A070022CC
:060CBE001208E5020977AF
:100C9100E4F50CF510F511F512F513F50F120CC46E
:050CA100E50C60FC22DF
:100BC200E4F50CF510F511F525F526750F01120C5B
:100BD200C4E50C60FCE4F50C120CC4E50C60FC22CC
:100AE700E4F5A0120B7D120C78120CA6120C917F64
:100AF70080120C1F7BFF7A0B7946120B527FC012B4
:100B07000C1F7BFF7A0B794C120B52E50860FCE453
:0A0B1700F508120BC2120CBE80F1AB
:100A1400020AE7E493A3F8E493A34003F68001F207
:100A240008DFF48029E493A3F85407240CC8C333E3
:100A3400C4540F4420C8834004F456800146F6DFB2
:100A4400E4800B0102040810204080900BA1E47E96
:100A5400019360BCA3FF543F30E509541FFEE493A7
:100A6400A360010ECF54C025E060A840B8E493A36E
:100A7400FAE493A3F8E493A3C8C582C8CAC583CA99
:100A8400F0A3C8C582C8CAC583CADFE9DEE780BE51
:010BC1000033
:100A9400BB010CE58229F582E5833AF583E0225017
:100AA40006E92582F8E622BBFE06E92582F8E22261
:0D0AB400E58229F582E5833AF583E493227B
:100AC100D083D082F8E4937012740193700DA3A3C4
:100AD10093F8740193F5828883E4737402936860D8
:060AE100EFA3A3A380DFD8
:00000001FF
